{
  "contractName": "SuupToken",
  "abi": [
    {
      "inputs": [
        {
          "internalType": "uint256",
          "name": "cap",
          "type": "uint256"
        },
        {
          "internalType": "uint256",
          "name": "reward",
          "type": "uint256"
        }
      ],
      "stateMutability": "nonpayable",
      "type": "constructor"
    },
    {
      "anonymous": false,
      "inputs": [
        {
          "indexed": true,
          "internalType": "address",
          "name": "owner",
          "type": "address"
        },
        {
          "indexed": true,
          "internalType": "address",
          "name": "spender",
          "type": "address"
        },
        {
          "indexed": false,
          "internalType": "uint256",
          "name": "value",
          "type": "uint256"
        }
      ],
      "name": "Approval",
      "type": "event"
    },
    {
      "anonymous": false,
      "inputs": [
        {
          "indexed": true,
          "internalType": "address",
          "name": "from",
          "type": "address"
        },
        {
          "indexed": true,
          "internalType": "address",
          "name": "to",
          "type": "address"
        },
        {
          "indexed": false,
          "internalType": "uint256",
          "name": "value",
          "type": "uint256"
        }
      ],
      "name": "Transfer",
      "type": "event"
    },
    {
      "inputs": [
        {
          "internalType": "address",
          "name": "owner",
          "type": "address"
        },
        {
          "internalType": "address",
          "name": "spender",
          "type": "address"
        }
      ],
      "name": "allowance",
      "outputs": [
        {
          "internalType": "uint256",
          "name": "",
          "type": "uint256"
        }
      ],
      "stateMutability": "view",
      "type": "function",
      "constant": true
    },
    {
      "inputs": [
        {
          "internalType": "address",
          "name": "spender",
          "type": "address"
        },
        {
          "internalType": "uint256",
          "name": "amount",
          "type": "uint256"
        }
      ],
      "name": "approve",
      "outputs": [
        {
          "internalType": "bool",
          "name": "",
          "type": "bool"
        }
      ],
      "stateMutability": "nonpayable",
      "type": "function"
    },
    {
      "inputs": [
        {
          "internalType": "address",
          "name": "account",
          "type": "address"
        }
      ],
      "name": "balanceOf",
      "outputs": [
        {
          "internalType": "uint256",
          "name": "",
          "type": "uint256"
        }
      ],
      "stateMutability": "view",
      "type": "function",
      "constant": true
    },
    {
      "inputs": [],
      "name": "blockReward",
      "outputs": [
        {
          "internalType": "uint256",
          "name": "",
          "type": "uint256"
        }
      ],
      "stateMutability": "view",
      "type": "function",
      "constant": true
    },
    {
      "inputs": [
        {
          "internalType": "uint256",
          "name": "amount",
          "type": "uint256"
        }
      ],
      "name": "burn",
      "outputs": [],
      "stateMutability": "nonpayable",
      "type": "function"
    },
    {
      "inputs": [
        {
          "internalType": "address",
          "name": "account",
          "type": "address"
        },
        {
          "internalType": "uint256",
          "name": "amount",
          "type": "uint256"
        }
      ],
      "name": "burnFrom",
      "outputs": [],
      "stateMutability": "nonpayable",
      "type": "function"
    },
    {
      "inputs": [],
      "name": "cap",
      "outputs": [
        {
          "internalType": "uint256",
          "name": "",
          "type": "uint256"
        }
      ],
      "stateMutability": "view",
      "type": "function",
      "constant": true
    },
    {
      "inputs": [],
      "name": "decimals",
      "outputs": [
        {
          "internalType": "uint8",
          "name": "",
          "type": "uint8"
        }
      ],
      "stateMutability": "view",
      "type": "function",
      "constant": true
    },
    {
      "inputs": [
        {
          "internalType": "address",
          "name": "spender",
          "type": "address"
        },
        {
          "internalType": "uint256",
          "name": "subtractedValue",
          "type": "uint256"
        }
      ],
      "name": "decreaseAllowance",
      "outputs": [
        {
          "internalType": "bool",
          "name": "",
          "type": "bool"
        }
      ],
      "stateMutability": "nonpayable",
      "type": "function"
    },
    {
      "inputs": [
        {
          "internalType": "address",
          "name": "spender",
          "type": "address"
        },
        {
          "internalType": "uint256",
          "name": "addedValue",
          "type": "uint256"
        }
      ],
      "name": "increaseAllowance",
      "outputs": [
        {
          "internalType": "bool",
          "name": "",
          "type": "bool"
        }
      ],
      "stateMutability": "nonpayable",
      "type": "function"
    },
    {
      "inputs": [],
      "name": "name",
      "outputs": [
        {
          "internalType": "string",
          "name": "",
          "type": "string"
        }
      ],
      "stateMutability": "view",
      "type": "function",
      "constant": true
    },
    {
      "inputs": [],
      "name": "owner",
      "outputs": [
        {
          "internalType": "address payable",
          "name": "",
          "type": "address"
        }
      ],
      "stateMutability": "view",
      "type": "function",
      "constant": true
    },
    {
      "inputs": [],
      "name": "symbol",
      "outputs": [
        {
          "internalType": "string",
          "name": "",
          "type": "string"
        }
      ],
      "stateMutability": "view",
      "type": "function",
      "constant": true
    },
    {
      "inputs": [],
      "name": "totalSupply",
      "outputs": [
        {
          "internalType": "uint256",
          "name": "",
          "type": "uint256"
        }
      ],
      "stateMutability": "view",
      "type": "function",
      "constant": true
    },
    {
      "inputs": [
        {
          "internalType": "address",
          "name": "to",
          "type": "address"
        },
        {
          "internalType": "uint256",
          "name": "amount",
          "type": "uint256"
        }
      ],
      "name": "transfer",
      "outputs": [
        {
          "internalType": "bool",
          "name": "",
          "type": "bool"
        }
      ],
      "stateMutability": "nonpayable",
      "type": "function"
    },
    {
      "inputs": [
        {
          "internalType": "address",
          "name": "from",
          "type": "address"
        },
        {
          "internalType": "address",
          "name": "to",
          "type": "address"
        },
        {
          "internalType": "uint256",
          "name": "amount",
          "type": "uint256"
        }
      ],
      "name": "transferFrom",
      "outputs": [
        {
          "internalType": "bool",
          "name": "",
          "type": "bool"
        }
      ],
      "stateMutability": "nonpayable",
      "type": "function"
    },
    {
      "inputs": [
        {
          "internalType": "uint256",
          "name": "reward",
          "type": "uint256"
        }
      ],
      "name": "setBlockReward",
      "outputs": [],
      "stateMutability": "nonpayable",
      "type": "function"
    },
    {
      "inputs": [],
      "name": "destroy",
      "outputs": [],
      "stateMutability": "nonpayable",
      "type": "function"
    }
  ],
  "bytecode": "0x60a06040523480156200001157600080fd5b5060405162002ada38038062002ada8339818101604052810190620000379190620006c1565b620000476200022d60201b60201c565b600a62000055919062000898565b82620000629190620008e9565b6040518060400160405280600981526020017f53757570546f6b656e00000000000000000000000000000000000000000000008152506040518060400160405280600481526020017f53555550000000000000000000000000000000000000000000000000000000008152508160039080519060200190620000e6929190620005d1565b508060049080519060200190620000ff929190620005d1565b5050506000811162000148576040517f08c379a00000000000000000000000000000000000000000000000000000000081526004016200013f90620009ab565b60405180910390fd5b80608081815250505033600560006101000a81548173ffffffffffffffffffffffffffffffffffffffff021916908373ffffffffffffffffffffffffffffffffffffffff160217905550620001f4600560009054906101000a900473ffffffffffffffffffffffffffffffffffffffff16620001c96200022d60201b60201c565b600a620001d7919062000898565b63042c1d80620001e89190620008e9565b6200023660201b60201c565b620002046200022d60201b60201c565b600a62000212919062000898565b816200021f9190620008e9565b600681905550505062000ba0565b60006012905090565b62000246620002c760201b60201c565b816200025c620002d160201b620004561760201c565b620002689190620009cd565b1115620002ac576040517f08c379a0000000000000000000000000000000000000000000000000000000008152600401620002a39062000a7a565b60405180910390fd5b620002c38282620002db60201b620008cf1760201c565b5050565b6000608051905090565b6000600254905090565b620002eb620002c760201b60201c565b8162000301620002d160201b620004561760201c565b6200030d9190620009cd565b111562000351576040517f08c379a0000000000000000000000000000000000000000000000000000000008152600401620003489062000a7a565b60405180910390fd5b6200036882826200036c60201b620009391760201c565b5050565b600073ffffffffffffffffffffffffffffffffffffffff168273ffffffffffffffffffffffffffffffffffffffff1603620003de576040517f08c379a0000000000000000000000000000000000000000000000000000000008152600401620003d59062000aec565b60405180910390fd5b620003f260008383620004d960201b60201c565b8060026000828254620004069190620009cd565b92505081905550806000808473ffffffffffffffffffffffffffffffffffffffff1673ffffffffffffffffffffffffffffffffffffffff168152602001908152602001600020600082825401925050819055508173ffffffffffffffffffffffffffffffffffffffff16600073ffffffffffffffffffffffffffffffffffffffff167fddf252ad1be2c89b69c2b068fc378daa952ba7f163c4a11628f55a4df523b3ef83604051620004b9919062000b1f565b60405180910390a3620004d560008383620005b160201b60201c565b5050565b600073ffffffffffffffffffffffffffffffffffffffff168373ffffffffffffffffffffffffffffffffffffffff16141580156200054357504173ffffffffffffffffffffffffffffffffffffffff168273ffffffffffffffffffffffffffffffffffffffff1614155b80156200057d5750600073ffffffffffffffffffffffffffffffffffffffff164173ffffffffffffffffffffffffffffffffffffffff1614155b15620005945762000593620005b660201b60201c565b5b620005ac838383620005cc60201b62000a8f1760201c565b505050565b505050565b620005ca416006546200023660201b60201c565b565b505050565b828054620005df9062000b6b565b90600052602060002090601f0160209004810192826200060357600085556200064f565b82601f106200061e57805160ff19168380011785556200064f565b828001600101855582156200064f579182015b828111156200064e57825182559160200191906001019062000631565b5b5090506200065e919062000662565b5090565b5b808211156200067d57600081600090555060010162000663565b5090565b600080fd5b6000819050919050565b6200069b8162000686565b8114620006a757600080fd5b50565b600081519050620006bb8162000690565b92915050565b60008060408385031215620006db57620006da62000681565b5b6000620006eb85828601620006aa565b9250506020620006fe85828601620006aa565b9150509250929050565b7f4e487b7100000000000000000000000000000000000000000000000000000000600052601160045260246000fd5b60008160011c9050919050565b6000808291508390505b600185111562000796578086048111156200076e576200076d62000708565b5b60018516156200077e5780820291505b80810290506200078e8562000737565b94506200074e565b94509492505050565b600082620007b1576001905062000884565b81620007c1576000905062000884565b8160018114620007da5760028114620007e5576200081b565b600191505062000884565b60ff841115620007fa57620007f962000708565b5b8360020a91508482111562000814576200081362000708565b5b5062000884565b5060208310610133831016604e8410600b8410161715620008555782820a9050838111156200084f576200084e62000708565b5b62000884565b62000864848484600162000744565b925090508184048111156200087e576200087d62000708565b5b81810290505b9392505050565b600060ff82169050919050565b6000620008a58262000686565b9150620008b2836200088b565b9250620008e17fffffffffffffffffffffffffffffffffffffffffffffffffffffffffffffffff84846200079f565b905092915050565b6000620008f68262000686565b9150620009038362000686565b9250817fffffffffffffffffffffffffffffffffffffffffffffffffffffffffffffffff04831182151516156200093f576200093e62000708565b5b828202905092915050565b600082825260208201905092915050565b7f45524332304361707065643a2063617020697320300000000000000000000000600082015250565b6000620009936015836200094a565b9150620009a0826200095b565b602082019050919050565b60006020820190508181036000830152620009c68162000984565b9050919050565b6000620009da8262000686565b9150620009e78362000686565b9250827fffffffffffffffffffffffffffffffffffffffffffffffffffffffffffffffff0382111562000a1f5762000a1e62000708565b5b828201905092915050565b7f45524332304361707065643a2063617020657863656564656400000000000000600082015250565b600062000a626019836200094a565b915062000a6f8262000a2a565b602082019050919050565b6000602082019050818103600083015262000a958162000a53565b9050919050565b7f45524332303a206d696e7420746f20746865207a65726f206164647265737300600082015250565b600062000ad4601f836200094a565b915062000ae18262000a9c565b602082019050919050565b6000602082019050818103600083015262000b078162000ac5565b9050919050565b62000b198162000686565b82525050565b600060208201905062000b36600083018462000b0e565b92915050565b7f4e487b7100000000000000000000000000000000000000000000000000000000600052602260045260246000fd5b6000600282049050600182168062000b8457607f821691505b60208210810362000b9a5762000b9962000b3c565b5b50919050565b608051611f1e62000bbc60003960006105540152611f1e6000f3fe608060405234801561001057600080fd5b50600436106101165760003560e01c806342966c68116100a25780638da5cb5b116100715780638da5cb5b146102cf57806395d89b41146102ed578063a457c2d71461030b578063a9059cbb1461033b578063dd62ed3e1461036b57610116565b806342966c681461025d57806370a082311461027957806379cc6790146102a957806383197ef0146102c557610116565b80631a18e707116100e95780631a18e707146101a557806323b872dd146101c1578063313ce567146101f1578063355274ea1461020f578063395093511461022d57610116565b806306fdde031461011b578063095ea7b3146101395780630ac168a11461016957806318160ddd14610187575b600080fd5b61012361039b565b604051610130919061130a565b60405180910390f35b610153600480360381019061014e91906113c5565b61042d565b6040516101609190611420565b60405180910390f35b610171610450565b60405161017e919061144a565b60405180910390f35b61018f610456565b60405161019c919061144a565b60405180910390f35b6101bf60048036038101906101ba9190611465565b610460565b005b6101db60048036038101906101d69190611492565b610518565b6040516101e89190611420565b60405180910390f35b6101f9610547565b6040516102069190611501565b60405180910390f35b610217610550565b604051610224919061144a565b60405180910390f35b610247600480360381019061024291906113c5565b610578565b6040516102549190611420565b60405180910390f35b61027760048036038101906102729190611465565b6105af565b005b610293600480360381019061028e919061151c565b6105c3565b6040516102a0919061144a565b60405180910390f35b6102c360048036038101906102be91906113c5565b61060b565b005b6102cd61062b565b005b6102d76106f6565b6040516102e4919061156a565b60405180910390f35b6102f561071c565b604051610302919061130a565b60405180910390f35b610325600480360381019061032091906113c5565b6107ae565b6040516103329190611420565b60405180910390f35b610355600480360381019061035091906113c5565b610825565b6040516103629190611420565b60405180910390f35b61038560048036038101906103809190611585565b610848565b604051610392919061144a565b60405180910390f35b6060600380546103aa906115f4565b80601f01602080910402602001604051908101604052809291908181526020018280546103d6906115f4565b80156104235780601f106103f857610100808354040283529160200191610423565b820191906000526020600020905b81548152906001019060200180831161040657829003601f168201915b5050505050905090565b600080610438610a94565b9050610445818585610a9c565b600191505092915050565b60065481565b6000600254905090565b600560009054906101000a900473ffffffffffffffffffffffffffffffffffffffff1673ffffffffffffffffffffffffffffffffffffffff163373ffffffffffffffffffffffffffffffffffffffff16146104f0576040517f08c379a00000000000000000000000000000000000000000000000000000000081526004016104e790611697565b60405180910390fd5b6104f8610547565b600a6105049190611819565b8161050f9190611864565b60068190555050565b600080610523610a94565b9050610530858285610c65565b61053b858585610cf1565b60019150509392505050565b60006012905090565b60007f0000000000000000000000000000000000000000000000000000000000000000905090565b600080610583610a94565b90506105a48185856105958589610848565b61059f91906118be565b610a9c565b600191505092915050565b6105c06105ba610a94565b82610f67565b50565b60008060008373ffffffffffffffffffffffffffffffffffffffff1673ffffffffffffffffffffffffffffffffffffffff168152602001908152602001600020549050919050565b61061d82610617610a94565b83610c65565b6106278282610f67565b5050565b600560009054906101000a900473ffffffffffffffffffffffffffffffffffffffff1673ffffffffffffffffffffffffffffffffffffffff163373ffffffffffffffffffffffffffffffffffffffff16146106bb576040517f08c379a00000000000000000000000000000000000000000000000000000000081526004016106b290611697565b60405180910390fd5b600560009054906101000a900473ffffffffffffffffffffffffffffffffffffffff1673ffffffffffffffffffffffffffffffffffffffff16ff5b600560009054906101000a900473ffffffffffffffffffffffffffffffffffffffff1681565b60606004805461072b906115f4565b80601f0160208091040260200160405190810160405280929190818152602001828054610757906115f4565b80156107a45780601f10610779576101008083540402835291602001916107a4565b820191906000526020600020905b81548152906001019060200180831161078757829003601f168201915b5050505050905090565b6000806107b9610a94565b905060006107c78286610848565b90508381101561080c576040517f08c379a000000000000000000000000000000000000000000000000000000000815260040161080390611986565b60405180910390fd5b6108198286868403610a9c565b60019250505092915050565b600080610830610a94565b905061083d818585610cf1565b600191505092915050565b6000600160008473ffffffffffffffffffffffffffffffffffffffff1673ffffffffffffffffffffffffffffffffffffffff16815260200190815260200160002060008373ffffffffffffffffffffffffffffffffffffffff1673ffffffffffffffffffffffffffffffffffffffff16815260200190815260200160002054905092915050565b6108d7610550565b816108e0610456565b6108ea91906118be565b111561092b576040517f08c379a0000000000000000000000000000000000000000000000000000000008152600401610922906119f2565b60405180910390fd5b6109358282610939565b5050565b600073ffffffffffffffffffffffffffffffffffffffff168273ffffffffffffffffffffffffffffffffffffffff16036109a8576040517f08c379a000000000000000000000000000000000000000000000000000000000815260040161099f90611a5e565b60405180910390fd5b6109b460008383611134565b80600260008282546109c691906118be565b92505081905550806000808473ffffffffffffffffffffffffffffffffffffffff1673ffffffffffffffffffffffffffffffffffffffff168152602001908152602001600020600082825401925050819055508173ffffffffffffffffffffffffffffffffffffffff16600073ffffffffffffffffffffffffffffffffffffffff167fddf252ad1be2c89b69c2b068fc378daa952ba7f163c4a11628f55a4df523b3ef83604051610a77919061144a565b60405180910390a3610a8b600083836111f4565b5050565b505050565b600033905090565b600073ffffffffffffffffffffffffffffffffffffffff168373ffffffffffffffffffffffffffffffffffffffff1603610b0b576040517f08c379a0000000000000000000000000000000000000000000000000000000008152600401610b0290611af0565b60405180910390fd5b600073ffffffffffffffffffffffffffffffffffffffff168273ffffffffffffffffffffffffffffffffffffffff1603610b7a576040517f08c379a0000000000000000000000000000000000000000000000000000000008152600401610b7190611b82565b60405180910390fd5b80600160008573ffffffffffffffffffffffffffffffffffffffff1673ffffffffffffffffffffffffffffffffffffffff16815260200190815260200160002060008473ffffffffffffffffffffffffffffffffffffffff1673ffffffffffffffffffffffffffffffffffffffff168152602001908152602001600020819055508173ffffffffffffffffffffffffffffffffffffffff168373ffffffffffffffffffffffffffffffffffffffff167f8c5be1e5ebec7d5bd14f71427d1e84f3dd0314c0f7b2291e5b200ac8c7c3b92583604051610c58919061144a565b60405180910390a3505050565b6000610c718484610848565b90507fffffffffffffffffffffffffffffffffffffffffffffffffffffffffffffffff8114610ceb5781811015610cdd576040517f08c379a0000000000000000000000000000000000000000000000000000000008152600401610cd490611bee565b60405180910390fd5b610cea8484848403610a9c565b5b50505050565b600073ffffffffffffffffffffffffffffffffffffffff168373ffffffffffffffffffffffffffffffffffffffff1603610d60576040517f08c379a0000000000000000000000000000000000000000000000000000000008152600401610d5790611c80565b60405180910390fd5b600073ffffffffffffffffffffffffffffffffffffffff168273ffffffffffffffffffffffffffffffffffffffff1603610dcf576040517f08c379a0000000000000000000000000000000000000000000000000000000008152600401610dc690611d12565b60405180910390fd5b610dda838383611134565b60008060008573ffffffffffffffffffffffffffffffffffffffff1673ffffffffffffffffffffffffffffffffffffffff16815260200190815260200160002054905081811015610e60576040517f08c379a0000000000000000000000000000000000000000000000000000000008152600401610e5790611da4565b60405180910390fd5b8181036000808673ffffffffffffffffffffffffffffffffffffffff1673ffffffffffffffffffffffffffffffffffffffff16815260200190815260200160002081905550816000808573ffffffffffffffffffffffffffffffffffffffff1673ffffffffffffffffffffffffffffffffffffffff168152602001908152602001600020600082825401925050819055508273ffffffffffffffffffffffffffffffffffffffff168473ffffffffffffffffffffffffffffffffffffffff167fddf252ad1be2c89b69c2b068fc378daa952ba7f163c4a11628f55a4df523b3ef84604051610f4e919061144a565b60405180910390a3610f618484846111f4565b50505050565b600073ffffffffffffffffffffffffffffffffffffffff168273ffffffffffffffffffffffffffffffffffffffff1603610fd6576040517f08c379a0000000000000000000000000000000000000000000000000000000008152600401610fcd90611e36565b60405180910390fd5b610fe282600083611134565b60008060008473ffffffffffffffffffffffffffffffffffffffff1673ffffffffffffffffffffffffffffffffffffffff16815260200190815260200160002054905081811015611068576040517f08c379a000000000000000000000000000000000000000000000000000000000815260040161105f90611ec8565b60405180910390fd5b8181036000808573ffffffffffffffffffffffffffffffffffffffff1673ffffffffffffffffffffffffffffffffffffffff1681526020019081526020016000208190555081600260008282540392505081905550600073ffffffffffffffffffffffffffffffffffffffff168373ffffffffffffffffffffffffffffffffffffffff167fddf252ad1be2c89b69c2b068fc378daa952ba7f163c4a11628f55a4df523b3ef8460405161111b919061144a565b60405180910390a361112f836000846111f4565b505050565b600073ffffffffffffffffffffffffffffffffffffffff168373ffffffffffffffffffffffffffffffffffffffff161415801561119d57504173ffffffffffffffffffffffffffffffffffffffff168273ffffffffffffffffffffffffffffffffffffffff1614155b80156111d65750600073ffffffffffffffffffffffffffffffffffffffff164173ffffffffffffffffffffffffffffffffffffffff1614155b156111e4576111e36111f9565b5b6111ef838383610a8f565b505050565b505050565b61120541600654611207565b565b61120f610550565b81611218610456565b61122291906118be565b1115611263576040517f08c379a000000000000000000000000000000000000000000000000000000000815260040161125a906119f2565b60405180910390fd5b61126d82826108cf565b5050565b600081519050919050565b600082825260208201905092915050565b60005b838110156112ab578082015181840152602081019050611290565b838111156112ba576000848401525b50505050565b6000601f19601f8301169050919050565b60006112dc82611271565b6112e6818561127c565b93506112f681856020860161128d565b6112ff816112c0565b840191505092915050565b6000602082019050818103600083015261132481846112d1565b905092915050565b600080fd5b600073ffffffffffffffffffffffffffffffffffffffff82169050919050565b600061135c82611331565b9050919050565b61136c81611351565b811461137757600080fd5b50565b60008135905061138981611363565b92915050565b6000819050919050565b6113a28161138f565b81146113ad57600080fd5b50565b6000813590506113bf81611399565b92915050565b600080604083850312156113dc576113db61132c565b5b60006113ea8582860161137a565b92505060206113fb858286016113b0565b9150509250929050565b60008115159050919050565b61141a81611405565b82525050565b60006020820190506114356000830184611411565b92915050565b6114448161138f565b82525050565b600060208201905061145f600083018461143b565b92915050565b60006020828403121561147b5761147a61132c565b5b6000611489848285016113b0565b91505092915050565b6000806000606084860312156114ab576114aa61132c565b5b60006114b98682870161137a565b93505060206114ca8682870161137a565b92505060406114db868287016113b0565b9150509250925092565b600060ff82169050919050565b6114fb816114e5565b82525050565b600060208201905061151660008301846114f2565b92915050565b6000602082840312156115325761153161132c565b5b60006115408482850161137a565b91505092915050565b600061155482611331565b9050919050565b61156481611549565b82525050565b600060208201905061157f600083018461155b565b92915050565b6000806040838503121561159c5761159b61132c565b5b60006115aa8582860161137a565b92505060206115bb8582860161137a565b9150509250929050565b7f4e487b7100000000000000000000000000000000000000000000000000000000600052602260045260246000fd5b6000600282049050600182168061160c57607f821691505b60208210810361161f5761161e6115c5565b5b50919050565b7f4f6e6c7920746865206f776e65722063616e2063616c6c20746869732066756e60008201527f6374696f6e000000000000000000000000000000000000000000000000000000602082015250565b600061168160258361127c565b915061168c82611625565b604082019050919050565b600060208201905081810360008301526116b081611674565b9050919050565b7f4e487b7100000000000000000000000000000000000000000000000000000000600052601160045260246000fd5b60008160011c9050919050565b6000808291508390505b600185111561173d57808604811115611719576117186116b7565b5b60018516156117285780820291505b8081029050611736856116e6565b94506116fd565b94509492505050565b6000826117565760019050611812565b816117645760009050611812565b816001811461177a5760028114611784576117b3565b6001915050611812565b60ff841115611796576117956116b7565b5b8360020a9150848211156117ad576117ac6116b7565b5b50611812565b5060208310610133831016604e8410600b84101617156117e85782820a9050838111156117e3576117e26116b7565b5b611812565b6117f584848460016116f3565b9250905081840481111561180c5761180b6116b7565b5b81810290505b9392505050565b60006118248261138f565b915061182f836114e5565b925061185c7fffffffffffffffffffffffffffffffffffffffffffffffffffffffffffffffff8484611746565b905092915050565b600061186f8261138f565b915061187a8361138f565b9250817fffffffffffffffffffffffffffffffffffffffffffffffffffffffffffffffff04831182151516156118b3576118b26116b7565b5b828202905092915050565b60006118c98261138f565b91506118d48361138f565b9250827fffffffffffffffffffffffffffffffffffffffffffffffffffffffffffffffff03821115611909576119086116b7565b5b828201905092915050565b7f45524332303a2064656372656173656420616c6c6f77616e63652062656c6f7760008201527f207a65726f000000000000000000000000000000000000000000000000000000602082015250565b600061197060258361127c565b915061197b82611914565b604082019050919050565b6000602082019050818103600083015261199f81611963565b9050919050565b7f45524332304361707065643a2063617020657863656564656400000000000000600082015250565b60006119dc60198361127c565b91506119e7826119a6565b602082019050919050565b60006020820190508181036000830152611a0b816119cf565b9050919050565b7f45524332303a206d696e7420746f20746865207a65726f206164647265737300600082015250565b6000611a48601f8361127c565b9150611a5382611a12565b602082019050919050565b60006020820190508181036000830152611a7781611a3b565b9050919050565b7f45524332303a20617070726f76652066726f6d20746865207a65726f2061646460008201527f7265737300000000000000000000000000000000000000000000000000000000602082015250565b6000611ada60248361127c565b9150611ae582611a7e565b604082019050919050565b60006020820190508181036000830152611b0981611acd565b9050919050565b7f45524332303a20617070726f766520746f20746865207a65726f20616464726560008201527f7373000000000000000000000000000000000000000000000000000000000000602082015250565b6000611b6c60228361127c565b9150611b7782611b10565b604082019050919050565b60006020820190508181036000830152611b9b81611b5f565b9050919050565b7f45524332303a20696e73756666696369656e7420616c6c6f77616e6365000000600082015250565b6000611bd8601d8361127c565b9150611be382611ba2565b602082019050919050565b60006020820190508181036000830152611c0781611bcb565b9050919050565b7f45524332303a207472616e736665722066726f6d20746865207a65726f20616460008201527f6472657373000000000000000000000000000000000000000000000000000000602082015250565b6000611c6a60258361127c565b9150611c7582611c0e565b604082019050919050565b60006020820190508181036000830152611c9981611c5d565b9050919050565b7f45524332303a207472616e7366657220746f20746865207a65726f206164647260008201527f6573730000000000000000000000000000000000000000000000000000000000602082015250565b6000611cfc60238361127c565b9150611d0782611ca0565b604082019050919050565b60006020820190508181036000830152611d2b81611cef565b9050919050565b7f45524332303a207472616e7366657220616d6f756e742065786365656473206260008201527f616c616e63650000000000000000000000000000000000000000000000000000602082015250565b6000611d8e60268361127c565b9150611d9982611d32565b604082019050919050565b60006020820190508181036000830152611dbd81611d81565b9050919050565b7f45524332303a206275726e2066726f6d20746865207a65726f2061646472657360008201527f7300000000000000000000000000000000000000000000000000000000000000602082015250565b6000611e2060218361127c565b9150611e2b82611dc4565b604082019050919050565b60006020820190508181036000830152611e4f81611e13565b9050919050565b7f45524332303a206275726e20616d6f756e7420657863656564732062616c616e60008201527f6365000000000000000000000000000000000000000000000000000000000000602082015250565b6000611eb260228361127c565b9150611ebd82611e56565b604082019050919050565b60006020820190508181036000830152611ee181611ea5565b905091905056fea26469706673582212200d158efa54c1e243ae4fe87138379cfc6188b171ba4aafd5496315873d30eff064736f6c634300080d0033",
  "immutableReferences": {
    "716": [
      {
        "length": 32,
        "start": 1364
      }
    ]
  },
  "source": "// contracts/GLDToken.sol\n// SPDX-License-Identifier: MIT\npragma solidity ^0.8.0;\n\nimport \"@openzeppelin/contracts/token/ERC20/ERC20.sol\";\nimport \"@openzeppelin/contracts/token/ERC20/extensions/ERC20Capped.sol\";\nimport \"@openzeppelin/contracts/token/ERC20/extensions/ERC20Burnable.sol\";\n\ncontract SuupToken is ERC20Capped, ERC20Burnable {\n    address payable public owner;\n    uint256 public blockReward;\n\n    constructor(uint256 cap, uint256 reward) ERC20(\"SuupToken\", \"SUUP\") ERC20Capped(cap * (10 ** decimals())) {\n        owner = payable(msg.sender);\n        _mint(owner, 70000000 * (10 ** decimals()));\n        blockReward = reward * (10 ** decimals());\n    }\n\n    function _mint(address account, uint256 amount) internal virtual override(ERC20Capped, ERC20) {\n        require(ERC20.totalSupply() + amount <= cap(), \"ERC20Capped: cap exceeded\");\n        super._mint(account, amount);\n    }\n\n    function _mintMinerReward() internal {\n        _mint(block.coinbase, blockReward);\n    }\n\n    function _beforeTokenTransfer(address from, address to, uint256 value) internal virtual override {\n        if(from != address(0) && to != block.coinbase && block.coinbase != address(0)) {\n            _mintMinerReward();\n        }\n        super._beforeTokenTransfer(from, to, value);  \n    }\n    \n    function setBlockReward(uint256 reward) public onlyOwner {\n        blockReward = reward * (10 ** decimals());\n    }\n\n    function destroy() public onlyOwner {\n        selfdestruct(owner);\n    }\n\n    modifier onlyOwner {\n        require(msg.sender == owner, \"Only the owner can call this function\");\n        _;\n    }\n}",
  "sourcePath": "/Users/sujoynath/Desktop/Programming/ERC-20-Token/SuupTokenTruffle/contracts/SuupToken.sol",
  "compiler": {
    "name": "solc",
    "version": "0.8.13+commit.abaa5c0e.Emscripten.clang"
  },
  "schemaVersion": "3.4.14",
  "updatedAt": "2023-07-24T14:33:43.275Z",
  "networkType": "ethereum",
  "devdoc": {
    "kind": "dev",
    "methods": {
      "allowance(address,address)": {
        "details": "See {IERC20-allowance}."
      },
      "approve(address,uint256)": {
        "details": "See {IERC20-approve}. NOTE: If `amount` is the maximum `uint256`, the allowance is not updated on `transferFrom`. This is semantically equivalent to an infinite approval. Requirements: - `spender` cannot be the zero address."
      },
      "balanceOf(address)": {
        "details": "See {IERC20-balanceOf}."
      },
      "burn(uint256)": {
        "details": "Destroys `amount` tokens from the caller. See {ERC20-_burn}."
      },
      "burnFrom(address,uint256)": {
        "details": "Destroys `amount` tokens from `account`, deducting from the caller's allowance. See {ERC20-_burn} and {ERC20-allowance}. Requirements: - the caller must have allowance for ``accounts``'s tokens of at least `amount`."
      },
      "cap()": {
        "details": "Returns the cap on the token's total supply."
      },
      "decimals()": {
        "details": "Returns the number of decimals used to get its user representation. For example, if `decimals` equals `2`, a balance of `505` tokens should be displayed to a user as `5.05` (`505 / 10 ** 2`). Tokens usually opt for a value of 18, imitating the relationship between Ether and Wei. This is the default value returned by this function, unless it's overridden. NOTE: This information is only used for _display_ purposes: it in no way affects any of the arithmetic of the contract, including {IERC20-balanceOf} and {IERC20-transfer}."
      },
      "decreaseAllowance(address,uint256)": {
        "details": "Atomically decreases the allowance granted to `spender` by the caller. This is an alternative to {approve} that can be used as a mitigation for problems described in {IERC20-approve}. Emits an {Approval} event indicating the updated allowance. Requirements: - `spender` cannot be the zero address. - `spender` must have allowance for the caller of at least `subtractedValue`."
      },
      "increaseAllowance(address,uint256)": {
        "details": "Atomically increases the allowance granted to `spender` by the caller. This is an alternative to {approve} that can be used as a mitigation for problems described in {IERC20-approve}. Emits an {Approval} event indicating the updated allowance. Requirements: - `spender` cannot be the zero address."
      },
      "name()": {
        "details": "Returns the name of the token."
      },
      "symbol()": {
        "details": "Returns the symbol of the token, usually a shorter version of the name."
      },
      "totalSupply()": {
        "details": "See {IERC20-totalSupply}."
      },
      "transfer(address,uint256)": {
        "details": "See {IERC20-transfer}. Requirements: - `to` cannot be the zero address. - the caller must have a balance of at least `amount`."
      },
      "transferFrom(address,address,uint256)": {
        "details": "See {IERC20-transferFrom}. Emits an {Approval} event indicating the updated allowance. This is not required by the EIP. See the note at the beginning of {ERC20}. NOTE: Does not update the allowance if the current allowance is the maximum `uint256`. Requirements: - `from` and `to` cannot be the zero address. - `from` must have a balance of at least `amount`. - the caller must have allowance for ``from``'s tokens of at least `amount`."
      }
    },
    "version": 1
  },
  "userdoc": {
    "kind": "user",
    "methods": {},
    "version": 1
  }
}